{
  "contractName": "TokenLib",
  "abi": [
    {
      "anonymous": false,
      "inputs": [
        {
          "indexed": true,
          "name": "_from",
          "type": "address"
        },
        {
          "indexed": true,
          "name": "_to",
          "type": "address"
        },
        {
          "indexed": false,
          "name": "_value",
          "type": "uint256"
        }
      ],
      "name": "Transfer",
      "type": "event"
    },
    {
      "anonymous": false,
      "inputs": [
        {
          "indexed": true,
          "name": "_owner",
          "type": "address"
        },
        {
          "indexed": true,
          "name": "_spender",
          "type": "address"
        },
        {
          "indexed": false,
          "name": "_value",
          "type": "uint256"
        }
      ],
      "name": "Approval",
      "type": "event"
    },
    {
      "constant": false,
      "inputs": [
        {
          "name": "_storage",
          "type": "address"
        },
        {
          "name": "_to",
          "type": "address"
        },
        {
          "name": "_value",
          "type": "uint256"
        }
      ],
      "name": "transfer",
      "outputs": [
        {
          "name": "",
          "type": "bool"
        }
      ],
      "payable": false,
      "stateMutability": "nonpayable",
      "type": "function"
    },
    {
      "constant": false,
      "inputs": [
        {
          "name": "_storage",
          "type": "address"
        },
        {
          "name": "_to",
          "type": "address"
        },
        {
          "name": "_value",
          "type": "uint256"
        }
      ],
      "name": "mint",
      "outputs": [
        {
          "name": "",
          "type": "bool"
        }
      ],
      "payable": false,
      "stateMutability": "nonpayable",
      "type": "function"
    },
    {
      "constant": true,
      "inputs": [
        {
          "name": "_storage",
          "type": "address"
        }
      ],
      "name": "totalSupply",
      "outputs": [
        {
          "name": "",
          "type": "uint256"
        }
      ],
      "payable": false,
      "stateMutability": "view",
      "type": "function"
    },
    {
      "constant": true,
      "inputs": [
        {
          "name": "_storage",
          "type": "address"
        },
        {
          "name": "_owner",
          "type": "address"
        }
      ],
      "name": "balanceOf",
      "outputs": [
        {
          "name": "balance",
          "type": "uint256"
        }
      ],
      "payable": false,
      "stateMutability": "view",
      "type": "function"
    },
    {
      "constant": true,
      "inputs": [
        {
          "name": "_storage",
          "type": "address"
        },
        {
          "name": "_owner",
          "type": "address"
        },
        {
          "name": "_spender",
          "type": "address"
        }
      ],
      "name": "getAllowance",
      "outputs": [
        {
          "name": "",
          "type": "uint256"
        }
      ],
      "payable": false,
      "stateMutability": "view",
      "type": "function"
    },
    {
      "constant": false,
      "inputs": [
        {
          "name": "_storage",
          "type": "address"
        },
        {
          "name": "_owner",
          "type": "address"
        },
        {
          "name": "_spender",
          "type": "address"
        },
        {
          "name": "_allowance",
          "type": "uint256"
        }
      ],
      "name": "setAllowance",
      "outputs": [],
      "payable": false,
      "stateMutability": "nonpayable",
      "type": "function"
    },
    {
      "constant": true,
      "inputs": [
        {
          "name": "_storage",
          "type": "address"
        },
        {
          "name": "_owner",
          "type": "address"
        },
        {
          "name": "_spender",
          "type": "address"
        }
      ],
      "name": "allowance",
      "outputs": [
        {
          "name": "",
          "type": "uint256"
        }
      ],
      "payable": false,
      "stateMutability": "view",
      "type": "function"
    },
    {
      "constant": false,
      "inputs": [
        {
          "name": "_storage",
          "type": "address"
        },
        {
          "name": "_from",
          "type": "address"
        },
        {
          "name": "_to",
          "type": "address"
        },
        {
          "name": "_value",
          "type": "uint256"
        }
      ],
      "name": "transferFrom",
      "outputs": [
        {
          "name": "",
          "type": "bool"
        }
      ],
      "payable": false,
      "stateMutability": "nonpayable",
      "type": "function"
    },
    {
      "constant": false,
      "inputs": [
        {
          "name": "_storage",
          "type": "address"
        },
        {
          "name": "_spender",
          "type": "address"
        },
        {
          "name": "_value",
          "type": "uint256"
        }
      ],
      "name": "approve",
      "outputs": [
        {
          "name": "",
          "type": "bool"
        }
      ],
      "payable": false,
      "stateMutability": "nonpayable",
      "type": "function"
    },
    {
      "constant": false,
      "inputs": [
        {
          "name": "_storage",
          "type": "address"
        },
        {
          "name": "_spender",
          "type": "address"
        },
        {
          "name": "_addedValue",
          "type": "uint256"
        }
      ],
      "name": "increaseApproval",
      "outputs": [
        {
          "name": "",
          "type": "bool"
        }
      ],
      "payable": false,
      "stateMutability": "nonpayable",
      "type": "function"
    },
    {
      "constant": false,
      "inputs": [
        {
          "name": "_storage",
          "type": "address"
        },
        {
          "name": "_spender",
          "type": "address"
        },
        {
          "name": "_subtractedValue",
          "type": "uint256"
        }
      ],
      "name": "decreaseApproval",
      "outputs": [
        {
          "name": "",
          "type": "bool"
        }
      ],
      "payable": false,
      "stateMutability": "nonpayable",
      "type": "function"
    }
  ],
  "bytecode": "0x611bac610030600b82828239805160001a6073146000811461002057610022565bfe5b5030600052607381538281f30073000000000000000000000000000000000000000030146080604052600436106100c6576000357c0100000000000000000000000000000000000000000000000000000000900463ffffffff16806315dacbea146100cb578063927da10514610170578063a7070373146101fa578063bcdd612114610287578063beabacc81461030c578063c6c3bbe614610391578063e1f21c6714610416578063e4dc2aa41461049b578063e7092b41146104e5578063f019c2671461056f578063f7888aec146105f4575b600080fd5b8180156100d757600080fd5b50610156600480360381019080803573ffffffffffffffffffffffffffffffffffffffff169060200190929190803573ffffffffffffffffffffffffffffffffffffffff169060200190929190803573ffffffffffffffffffffffffffffffffffffffff1690602001909291908035906020019092919050505061065e565b604051808215151515815260200191505060405180910390f35b6101e4600480360381019080803573ffffffffffffffffffffffffffffffffffffffff169060200190929190803573ffffffffffffffffffffffffffffffffffffffff169060200190929190803573ffffffffffffffffffffffffffffffffffffffff169060200190929190505050610ad9565b6040518082815260200191505060405180910390f35b81801561020657600080fd5b50610285600480360381019080803573ffffffffffffffffffffffffffffffffffffffff169060200190929190803573ffffffffffffffffffffffffffffffffffffffff169060200190929190803573ffffffffffffffffffffffffffffffffffffffff16906020019092919080359060200190929190505050610aef565b005b81801561029357600080fd5b506102f2600480360381019080803573ffffffffffffffffffffffffffffffffffffffff169060200190929190803573ffffffffffffffffffffffffffffffffffffffff16906020019092919080359060200190929190505050610cb3565b604051808215151515815260200191505060405180910390f35b81801561031857600080fd5b50610377600480360381019080803573ffffffffffffffffffffffffffffffffffffffff169060200190929190803573ffffffffffffffffffffffffffffffffffffffff16906020019092919080359060200190929190505050610ce5565b604051808215151515815260200191505060405180910390f35b81801561039d57600080fd5b506103fc600480360381019080803573ffffffffffffffffffffffffffffffffffffffff169060200190929190803573ffffffffffffffffffffffffffffffffffffffff16906020019092919080359060200190929190505050611264565b604051808215151515815260200191505060405180910390f35b81801561042257600080fd5b50610481600480360381019080803573ffffffffffffffffffffffffffffffffffffffff169060200190929190803573ffffffffffffffffffffffffffffffffffffffff16906020019092919080359060200190929190505050611524565b604051808215151515815260200191505060405180910390f35b6104cf600480360381019080803573ffffffffffffffffffffffffffffffffffffffff169060200190929190505050611618565b6040518082815260200191505060405180910390f35b610559600480360381019080803573ffffffffffffffffffffffffffffffffffffffff169060200190929190803573ffffffffffffffffffffffffffffffffffffffff169060200190929190803573ffffffffffffffffffffffffffffffffffffffff169060200190929190505050611774565b6040518082815260200191505060405180910390f35b81801561057b57600080fd5b506105da600480360381019080803573ffffffffffffffffffffffffffffffffffffffff169060200190929190803573ffffffffffffffffffffffffffffffffffffffff16906020019092919080359060200190929190505050611958565b604051808215151515815260200191505060405180910390f35b610648600480360381019080803573ffffffffffffffffffffffffffffffffffffffff169060200190929190803573ffffffffffffffffffffffffffffffffffffffff1690602001909291905050506119ab565b6040518082815260200191505060405180910390f35b600080600080600073ffffffffffffffffffffffffffffffffffffffff168673ffffffffffffffffffffffffffffffffffffffff16141515156106a057600080fd5b3373ffffffffffffffffffffffffffffffffffffffff168773ffffffffffffffffffffffffffffffffffffffff16141515156106db57600080fd5b6000851115156106ea57600080fd5b6106f488886119ab565b925084831015151561070557600080fd5b610710888833610ad9565b915084821015151561072157600080fd5b61072b88876119ab565b90508773ffffffffffffffffffffffffffffffffffffffff1663e2a4853a8860405160200180807f62616c616e6365000000000000000000000000000000000000000000000000008152506007018273ffffffffffffffffffffffffffffffffffffffff1673ffffffffffffffffffffffffffffffffffffffff166c010000000000000000000000000281526014019150506040516020818303038152906040526040518082805190602001908083835b60208310151561080157805182526020820191506020810190506020830392506107dc565b6001836020036101000a03801982511681845116808217855250505050505090500191505060405180910390206108418887611b4b90919063ffffffff16565b6040518363ffffffff167c010000000000000000000000000000000000000000000000000000000002815260040180836000191660001916815260200182815260200192505050600060405180830381600087803b1580156108a257600080fd5b505af11580156108b6573d6000803e3d6000fd5b505050508773ffffffffffffffffffffffffffffffffffffffff1663e2a4853a8760405160200180807f62616c616e6365000000000000000000000000000000000000000000000000008152506007018273ffffffffffffffffffffffffffffffffffffffff1673ffffffffffffffffffffffffffffffffffffffff166c010000000000000000000000000281526014019150506040516020818303038152906040526040518082805190602001908083835b60208310151561098e5780518252602082019150602081019050602083039250610969565b6001836020036101000a03801982511681845116808217855250505050505090500191505060405180910390206109ce8885611b6490919063ffffffff16565b6040518363ffffffff167c010000000000000000000000000000000000000000000000000000000002815260040180836000191660001916815260200182815260200192505050600060405180830381600087803b158015610a2f57600080fd5b505af1158015610a43573d6000803e3d6000fd5b50505050610a65888888610a608987611b4b90919063ffffffff16565b610aef565b8573ffffffffffffffffffffffffffffffffffffffff168773ffffffffffffffffffffffffffffffffffffffff167fddf252ad1be2c89b69c2b068fc378daa952ba7f163c4a11628f55a4df523b3ef876040518082815260200191505060405180910390a360019350505050949350505050565b6000610ae6848484611774565b90509392505050565b8373ffffffffffffffffffffffffffffffffffffffff1663e2a4853a848460405160200180807f616c6c6f77616e636500000000000000000000000000000000000000000000008152506009018373ffffffffffffffffffffffffffffffffffffffff1673ffffffffffffffffffffffffffffffffffffffff166c010000000000000000000000000281526014018273ffffffffffffffffffffffffffffffffffffffff1673ffffffffffffffffffffffffffffffffffffffff166c01000000000000000000000000028152601401925050506040516020818303038152906040526040518082805190602001908083835b602083101515610c065780518252602082019150602081019050602083039250610be1565b6001836020036101000a0380198251168184511680821785525050505050509050019150506040518091039020836040518363ffffffff167c010000000000000000000000000000000000000000000000000000000002815260040180836000191660001916815260200182815260200192505050600060405180830381600087803b158015610c9557600080fd5b505af1158015610ca9573d6000803e3d6000fd5b5050505050505050565b6000610cdc8484610cd785610cc989338a611774565b611b6490919063ffffffff16565b611524565b90509392505050565b60008060008073ffffffffffffffffffffffffffffffffffffffff168573ffffffffffffffffffffffffffffffffffffffff1614151515610d2557600080fd5b8573ffffffffffffffffffffffffffffffffffffffff1663bd02d0f53360405160200180807f62616c616e6365000000000000000000000000000000000000000000000000008152506007018273ffffffffffffffffffffffffffffffffffffffff1673ffffffffffffffffffffffffffffffffffffffff166c010000000000000000000000000281526014019150506040516020818303038152906040526040518082805190602001908083835b602083101515610df95780518252602082019150602081019050602083039250610dd4565b6001836020036101000a03801982511681845116808217855250505050505090500191505060405180910390206040518263ffffffff167c0100000000000000000000000000000000000000000000000000000000028152600401808260001916600019168152602001915050602060405180830381600087803b158015610e8057600080fd5b505af1158015610e94573d6000803e3d6000fd5b505050506040513d6020811015610eaa57600080fd5b81019080805190602001909291905050509150818411151515610ecc57600080fd5b610ed686866119ab565b90508573ffffffffffffffffffffffffffffffffffffffff1663e2a4853a3360405160200180807f62616c616e6365000000000000000000000000000000000000000000000000008152506007018273ffffffffffffffffffffffffffffffffffffffff1673ffffffffffffffffffffffffffffffffffffffff166c010000000000000000000000000281526014019150506040516020818303038152906040526040518082805190602001908083835b602083101515610fac5780518252602082019150602081019050602083039250610f87565b6001836020036101000a0380198251168184511680821785525050505050509050019150506040518091039020610fec8786611b4b90919063ffffffff16565b6040518363ffffffff167c010000000000000000000000000000000000000000000000000000000002815260040180836000191660001916815260200182815260200192505050600060405180830381600087803b15801561104d57600080fd5b505af1158015611061573d6000803e3d6000fd5b505050508573ffffffffffffffffffffffffffffffffffffffff1663e2a4853a8660405160200180807f62616c616e6365000000000000000000000000000000000000000000000000008152506007018273ffffffffffffffffffffffffffffffffffffffff1673ffffffffffffffffffffffffffffffffffffffff166c010000000000000000000000000281526014019150506040516020818303038152906040526040518082805190602001908083835b6020831015156111395780518252602082019150602081019050602083039250611114565b6001836020036101000a03801982511681845116808217855250505050505090500191505060405180910390206111798785611b6490919063ffffffff16565b6040518363ffffffff167c010000000000000000000000000000000000000000000000000000000002815260040180836000191660001916815260200182815260200192505050600060405180830381600087803b1580156111da57600080fd5b505af11580156111ee573d6000803e3d6000fd5b505050508473ffffffffffffffffffffffffffffffffffffffff163373ffffffffffffffffffffffffffffffffffffffff167fddf252ad1be2c89b69c2b068fc378daa952ba7f163c4a11628f55a4df523b3ef866040518082815260200191505060405180910390a36001925050509392505050565b60008373ffffffffffffffffffffffffffffffffffffffff1663e2a4853a8460405160200180807f62616c616e6365000000000000000000000000000000000000000000000000008152506007018273ffffffffffffffffffffffffffffffffffffffff1673ffffffffffffffffffffffffffffffffffffffff166c010000000000000000000000000281526014019150506040516020818303038152906040526040518082805190602001908083835b60208310151561133a5780518252602082019150602081019050602083039250611315565b6001836020036101000a0380198251168184511680821785525050505050509050019150506040518091039020846040518363ffffffff167c010000000000000000000000000000000000000000000000000000000002815260040180836000191660001916815260200182815260200192505050600060405180830381600087803b1580156113c957600080fd5b505af11580156113dd573d6000803e3d6000fd5b505050508373ffffffffffffffffffffffffffffffffffffffff1663e2a4853a60405160200180807f746f74616c537570706c79000000000000000000000000000000000000000000815250600b0190506040516020818303038152906040526040518082805190602001908083835b602083101515611472578051825260208201915060208101905060208303925061144d565b6001836020036101000a0380198251168184511680821785525050505050509050019150506040518091039020846040518363ffffffff167c010000000000000000000000000000000000000000000000000000000002815260040180836000191660001916815260200182815260200192505050600060405180830381600087803b15801561150157600080fd5b505af1158015611515573d6000803e3d6000fd5b50505050600190509392505050565b60008073ffffffffffffffffffffffffffffffffffffffff168373ffffffffffffffffffffffffffffffffffffffff161415151561156157600080fd5b8273ffffffffffffffffffffffffffffffffffffffff163373ffffffffffffffffffffffffffffffffffffffff161415151561159c57600080fd5b6115a884338585610aef565b8273ffffffffffffffffffffffffffffffffffffffff163373ffffffffffffffffffffffffffffffffffffffff167f8c5be1e5ebec7d5bd14f71427d1e84f3dd0314c0f7b2291e5b200ac8c7c3b925846040518082815260200191505060405180910390a3600190509392505050565b60008173ffffffffffffffffffffffffffffffffffffffff1663bd02d0f560405160200180807f746f74616c537570706c79000000000000000000000000000000000000000000815250600b0190506040516020818303038152906040526040518082805190602001908083835b6020831015156116ab5780518252602082019150602081019050602083039250611686565b6001836020036101000a03801982511681845116808217855250505050505090500191505060405180910390206040518263ffffffff167c0100000000000000000000000000000000000000000000000000000000028152600401808260001916600019168152602001915050602060405180830381600087803b15801561173257600080fd5b505af1158015611746573d6000803e3d6000fd5b505050506040513d602081101561175c57600080fd5b81019080805190602001909291905050509050919050565b60008373ffffffffffffffffffffffffffffffffffffffff1663bd02d0f5848460405160200180807f616c6c6f77616e636500000000000000000000000000000000000000000000008152506009018373ffffffffffffffffffffffffffffffffffffffff1673ffffffffffffffffffffffffffffffffffffffff166c010000000000000000000000000281526014018273ffffffffffffffffffffffffffffffffffffffff1673ffffffffffffffffffffffffffffffffffffffff166c01000000000000000000000000028152601401925050506040516020818303038152906040526040518082805190602001908083835b60208310151561188d5780518252602082019150602081019050602083039250611868565b6001836020036101000a03801982511681845116808217855250505050505090500191505060405180910390206040518263ffffffff167c0100000000000000000000000000000000000000000000000000000000028152600401808260001916600019168152602001915050602060405180830381600087803b15801561191457600080fd5b505af1158015611928573d6000803e3d6000fd5b505050506040513d602081101561193e57600080fd5b810190808051906020019092919050505090509392505050565b600080611966853386611774565b9050808311156119835761197c85856000611524565b91506119a3565b6119a0858561199b8685611b4b90919063ffffffff16565b611524565b91505b509392505050565b60008273ffffffffffffffffffffffffffffffffffffffff1663bd02d0f58360405160200180807f62616c616e6365000000000000000000000000000000000000000000000000008152506007018273ffffffffffffffffffffffffffffffffffffffff1673ffffffffffffffffffffffffffffffffffffffff166c010000000000000000000000000281526014019150506040516020818303038152906040526040518082805190602001908083835b602083101515611a815780518252602082019150602081019050602083039250611a5c565b6001836020036101000a03801982511681845116808217855250505050505090500191505060405180910390206040518263ffffffff167c0100000000000000000000000000000000000000000000000000000000028152600401808260001916600019168152602001915050602060405180830381600087803b158015611b0857600080fd5b505af1158015611b1c573d6000803e3d6000fd5b505050506040513d6020811015611b3257600080fd5b8101908080519060200190929190505050905092915050565b6000828211151515611b5957fe5b818303905092915050565b60008183019050828110151515611b7757fe5b809050929150505600a165627a7a723058202e8f8318cdf192af2434d50250e5a9c3a29b513785f6a796083440cec644c96b0029",
  "source": "pragma solidity ^0.4.24;\n\nimport \"./EternalStorage.sol\";\nimport \"./openzeppelin-solidity/contracts/math/SafeMath.sol\";\n\nlibrary TokenLib {\n  using SafeMath for uint256;\n  event Transfer(address indexed _from, address indexed _to, uint256 _value);\n  event Approval(address indexed _owner, address indexed _spender, uint256 _value);\n  \n  /* struct TokenStorage { address storage} */\n\n  function transfer(address _storage, address _to, uint256 _value) public returns (bool) {\n    require(_to != address(0));\n    uint256 senderBalance = EternalStorage(_storage).getUint(keccak256(abi.encodePacked('balance', msg.sender)));\n    require(_value <= senderBalance);\n\n    uint256 receiverBalance = balanceOf(_storage, _to);\n    EternalStorage(_storage).setUint(keccak256(abi.encodePacked('balance', msg.sender)), senderBalance.sub(_value));\n    EternalStorage(_storage).setUint(keccak256(abi.encodePacked('balance', _to)), receiverBalance.add(_value));\n    emit Transfer(msg.sender, _to, _value);\n    \n    return true;\n  }\n\n  function mint(address _storage, address _to, uint256 _value) public returns(bool) {\n\n    EternalStorage(_storage).setUint(keccak256(abi.encodePacked('balance', _to)), _value);\n    EternalStorage(_storage).setUint(keccak256(abi.encodePacked('totalSupply')), _value);\n    return true;\n  }\n\n\n  function totalSupply(address _storage) public view returns (uint256) {\n    return EternalStorage(_storage).getUint(keccak256(abi.encodePacked('totalSupply')));\n  }\n\n\n  function balanceOf(address _storage, address _owner) public view returns (uint256 balance) {\n    return EternalStorage(_storage).getUint(keccak256(abi.encodePacked('balance', _owner)));\n  }\n\n  function getAllowance(address _storage, address _owner, address _spender) public view returns (uint256) {\n    return EternalStorage(_storage).getUint(keccak256(abi.encodePacked('allowance', _owner, _spender)));\n  }\n\n  function setAllowance(address _storage, address _owner, address _spender, uint256 _allowance) public {\n    EternalStorage(_storage).setUint(keccak256(abi.encodePacked('allowance', _owner, _spender)), _allowance);\n  }\n\n  function allowance(address _storage, address _owner, address _spender) public view  returns (uint256) {\n    return getAllowance(_storage, _owner, _spender);\n  }\n\n  function transferFrom(address _storage, address _from, address _to, uint256 _value) public  returns (bool) {\n    require(_to != address(0));\n    require(_from != msg.sender);\n    require(_value > 0);\n    uint256 senderBalance = balanceOf(_storage, _from);\n    require(senderBalance >= _value);\n\n    uint256 allowanceValue = allowance(_storage, _from, msg.sender);\n    require(allowanceValue >= _value);\n\n    uint256 receiverBalance = balanceOf(_storage, _to);\n    EternalStorage(_storage).setUint(keccak256(abi.encodePacked('balance', _from)), senderBalance.sub(_value));\n    EternalStorage(_storage).setUint(keccak256(abi.encodePacked('balance', _to)), receiverBalance.add(_value));\n\n    setAllowance(_storage, _from, _to, allowanceValue.sub(_value));\n    emit Transfer(_from, _to, _value);\n\n    return true;\n  }\n\n  function approve(address _storage, address _spender, uint256 _value) public returns (bool) {\n    require(_spender != address(0));\n    require(msg.sender != _spender);\n\n    setAllowance(_storage, msg.sender, _spender, _value);\n\n    emit Approval(msg.sender, _spender, _value);\n    return true;\n  }\n\n  function increaseApproval(address _storage, address _spender, uint256 _addedValue) public returns (bool) {\n    return approve(_storage, _spender, getAllowance(_storage, msg.sender, _spender).add(_addedValue));\n  }\n\n  function decreaseApproval(address _storage, address _spender, uint256 _subtractedValue) public returns (bool) {\n    uint256 oldValue = getAllowance(_storage, msg.sender, _spender);\n\n    if (_subtractedValue > oldValue) {\n      return approve(_storage, _spender, 0);\n    } else {\n      return approve(_storage, _spender, oldValue.sub(_subtractedValue));\n    }\n  }\n\n}\n",
  "sourcePath": "/Users/walidalhabboul/Documents/development/hyperbridge/test-token/contracts/TokenLib.sol",
  "compiler": {
    "name": "solc",
    "version": "0.4.24+commit.e67f0147.Emscripten.clang"
  },
  "schemaVersion": "2.0.0",
  "updatedAt": "2018-06-26T08:13:54.725Z"
}